:0C0000000C9485000C946D090C9474099C
:100014000C947E090C9488090C9492090C949C0904
:040034000C94A60979
:040078000C94B0092B
:040080000C94B7091C
:14008C00544F2076315F3320054E5F544F0653505FBCBA076A
:1400A00053505F7963BF054258203E0642AE58203E0654416B
:1400B4005FBCBA055441208E07A34BA520939206A34BA52083
:1400C8002A05AB4143AE0642AEA44F42064FA8E1A5A5054E72
:1400DC005F5441000354410000000000000000000000000084
:1400F0000000000000000000000000000000000000000000FC
:14010400000000000000CFEFD0E1CDBFDEBFC051D0400AEA3A
:1401180008830024E6E2F1E011E0E633F10711F00192FBCF2B
:14012C000083E4EEF0E0A0E0B1E011E0EA30F10721F0C89518
:1401400031960D92F9CF0E94F001FFCF0E94670D2197222408
:140154002FBE20926F002CBE21BC2BBE2CBA29BE2ABE209272
:140168006A0024BE25BE20926C0020926D0023BE25BC2092A3
:14017C007A002EBC2FBC20928C0020928A0020928B002092B7
:140190007D0027BE209295002AB82BB820929D0020929A0052
:1401A40020929B0026B828B820926800209274002DB82EB831
:1401B80020929A0020929B0086E080939D0086E18093990071
:1401CC002092980088ED80939A008FEF8ABB8BBB87EF87BBF2
:1401E0008FEC88BB8FEF84BB85BB8FE082B980EF83B988EF84
:1401F40081BB80E982BB8FEF80936100809362008BE0809330
:1402080064008AE1809365008DE58DB922270FE80E9471028E
:14021C0025EA01E90E94710224E00FE80E947102222429BE83
:1402300088E080936A008AEA8ABF20922D01209227012092AC
:14024400260120922B0120922C0120922F0120922901209252
:14025800340120922A012092280187EF87BB14C08FE088BB67
:14026C00662777276F5F7F4F603FE0E07E07D4F38FEF88BB4B
:14028000662777276F5F7F4F603FE0E07E07D4F3EBCF2224F8
:14029400209231018DE089BD83EF88BD82E3809330012DBC76
:1402A8002CBC80E18FBD87EF87BB88E087BF2EBC8BEF85BBA3
:1402BC00442701C043954431E8F38FEF85BB44270AC066275A
:1402D000772702C06F5F7F4F6F3FEFEF7E07D0F343954A30F8
:1402E400A0F3222704E60E940F0322E00AE20E940F0324E0E6
:1402F80000270E940F0326E000270E940F0328E700270E945E
:14030C000F032AE000270E940F038EEF8883222700E40E948F
:140320002D03222709E00E94A3048DEF888325E000E40E940C
:140334002D0325E00AE00E94A3048FEE888327E000E40E9438
:140348002D0327E00BE00E94A3048FED888327E000E40E9422
:14035C002D0327E008E00E94A30481E080932C018FE7888303
:1403700022E000E40E942D0322E00CE00E94A3040E945D0685
:140384000E94340A0E94910A44270AC08CE890E0E42FFF27F6
:14039800E80FF91F04910E94F00943954930A0F307E00E94A5
:1403AC00B104402F242F00E40E949A0A409335010E94F80AEF
:1403C0000E94270D8FEF88BF40919C0086B3806388BB87EF4C
:1403D40089BF789421960E94580D089521970E94A6007AC02C
:1403E80020902D01222011F00E94590320902701222011F0C7
:1403FC000E94180520902B01222011F00E94E20520907C005A
:1404100022FE02C00E94270C4091630044FD10C08FEE888354
:14042400222700E20E942D0381E080932C018FE7888322275C
:1404380000E20E942D034EC00CE00E94B104402F81E08093C8
:14044C002C01083039F48FE78883222700E20E942D0306C0C6
:140460008FE78883242F00E40E942D030BE00E94B104402F4D
:14047400083039F48FEE8883222700E20E942D0306C08FEE47
:140488008883242F00E40E942D0300E40E94FF0900E20E943A
:14049C00F00900270E94FF090E945D0620902F012220B1F0BA
:1404B000222420922F01809163008260809365002092260169
:1404C4002EBC20903401222021F403E00E94EE0B03C0222477
:1404D8002092340185CF219608950E94690D86B3816088BB0C
:1404EC00442701C043954530E8F30FB9779BFECF2FB9779B07
:14050000FECF86B38E7F88BB0E946C0D08950E94690D86B388
:14051400816088BB442701C043954530E8F30FB9779BFECFB4
:14052800F90120802FB8779BFECF86B38E7F88BB0E946C0DBB
:14053C0008950E94690DF89486B3816088BB442701C0439509
:140550004530E8F30FB9779BFECF22242FB8779BFECF86B35B
:140564008E7F88BB78940FB10E946C0D089501E0E4DF009378
:140578000F0102E0E0DF00931001089503E0DBDF009311013B
:14058C0004E0D7DF0093120105E0D3DF0093130106E0CFDF49
:1405A00000931401089520E131E002E8B0DF2FE031E001E86E
:1405B400ACDF2227332700E8A8DF089521E131E003E8A3DF79
:1405C80022E131E004E89FDF23E131E005E89BDF24E131E00F
:1405DC0006E897DF08950E94690DC5DF00270E94FF09442712
:1405F00004C000E20E94F00943954930D0F3209110010027B9
:140604000E949A0A0DE20E94F00920910F0103E00E949A0A28
:140618000E946C0D08950E94690D83B38F7B85BB0FB9779BA4
:14062C00FECF2FB9779BFECF83B3806485BB22242FB8779B8D
:14064000FECF4427552702C04F5F5F4F423CE1E05E07D0F36D
:140654000E946C0D08950E94670D6C8120902C01222021F0A7
:1406680023B2262225BA04C020B02622209262000FB9779BB8
:14067C00FECF2FB9779BFECF262E33244FEF42195309209086
:140690002C01222039F023B2242A25BA222420922C0104C0D3
:1406A40020B0242A209262000E94580D08950E94690D21979C
:1406B80085E089BF80912D018150282E20922D01082F0E9462
:1406CC00AF0A00930301222420922D010F3F31F487EF89BF73
:1406E00088B7806F88BFF0C04091030155274A30E0E05E07F1
:1406F400C9F04B30E0E05E0749F14C30E0E05E0709F4DBC026
:140708004D30E0E05E0709F437C04E30E0E05E0709F462C085
:14071C004F30E0E05E0709F46DC083C020902E01222009F49A
:14073000C6C022242092060180912E018F5F80932E018D3003
:1407440019F482E080932E011CD4B7C020902E01222009F46B
:14075800B2C022242092060180912E01813019F0815080933E
:14076C002E0180912E01813019F48CE080932E0104D49FC067
:1407800020900501222029F481E08093050148D296C0809155
:140794000501813079F482E0809305018FED8883222700E200
:1407A80058DF00E40E94FF0900E20E94F00983C080910501A1
:1407BC00823009F07EC02224209205018091630088608093D3
:1407D000650001E40E94FF0900E20E94F0096FC020902E0196
:1407E400222021F481E080932E0167C00E94910A22242092AB
:1407F8002E01209206015FC020902E01222011F0E8D259C0F1
:14080C0089E020900B01821520F4822D865080930B010091D3
:140820000B010E94FA0B222420920B0148C0809103018A3036
:1408340008F043C080912E01813011F447D03DC020900C01EE
:14084800222011F093D037C080910601823011F4AAD431C0C1
:14085C0020902E01222091F420900B01222071F400270E94B6
:14087000FF09442704C000E20E94F00943954930D0F3002785
:140884000E94FF0920900B01222041F42090030120920B0111
:14089800022D0E94AB0A0FC080910B018F70829580930B01A5
:1408AC0020900301382E322830920B01022D0E94AB0A88B731
:1408C000806F88BF87EF89BF21960E946C0D089520901801F8
:1408D400222051F42090030120921501809118018F5F8093E2
:1408E80018012CC080911801813041F420900301209216016A
:1408FC008F5F8093180120C0809118018230E1F42090030189
:140910002092170122242092180180911501813071F48091AA
:140924001601853051F480911701893031F40E94910A04ED79
:1409380010E005D203C0222420922E010895F894E199FECF8A
:14094C00202E33243FBA2EBA2DBBE29AE19AE199FECF7894DF
:140960000895E199FECF202E33243FBA2EBAE09A0DB3089542
:140974000E94690D40910C0155274130E0E05E0769F042309C
:14098800E0E05E07B9F04330E0E05E0749F14430E0E05E0722
:14099C0099F142C02090030130901001322830921001022DDA
:1409B0000E94AB0A82E080930C0137C0809110018F7082952B
:1409C4008093100120900301382E322830921001022D0E94E3
:1409D800AB0A83E080930C010DE20E94F00921C020900301B4
:1409EC0030900F01322830920F01022D0E94AB0A84E08093FE
:140A00000C0113C080910F018F70829580930F0120900301F4
:140A1400382E322830920F01022D0E94AB0A03C022242092FB
:140A28000C010E946C0D0895222420922701809101018F5FD4
:140A3C0080930101809102018F5F8093020120902F01222057
:140A5000E1F0809100018F5F8093000122242EBC20902601A6
:140A6400222011F0833039F44CD122242092000181E08EBD99
:140A78001DD0809101018C33C1F422242092010114C0809117
:140A8C0001018C3341F422242092010120902E01222009F448
:140AA000A0DD8EE120900201821518F4222420920D0108955D
:140AB4002197209026012220B9F481E0809326010EEC10E02B
:140AC8003ED120902901222031F42091330106E00E949A0AB9
:140ADC000FC083E0888326E000EE10E051D108C080912601C3
:140AF0008F5F80932601873009F402D0219608950E94690DD8
:140B040022242092260120922F01809163008260809365000E
:140B18002EBC20902901222071F0222420922901409163000C
:140B2C00842F8071482F882351F502E00E94EE0B26C0209096
:140B40003401222019F022242092340100E209DF0093320164
:140B5400002379F020902801222059F420902A01222039F44F
:140B680081E080932A0185E580939C000AC040916300842F10
:140B7C008071482F882319F402E00E94EE0B0E946C0D089510
:140B900022242092260120922F018091630082608093650082
:140BA4002EBC20903401222019F0222420923401209029011C
:140BB800222019F0222420922901089580B3886082BB8091B6
:140BCC0063008D7F80936500222420922B012DBC2CBC809128
:140BE00030018150809330018823C9F420903101222059F0E6
:140BF4008DE089BD83EF88BD22242092310182E380933001B0
:140C08000AC081E189BD80E788BD81E08093310188E2809397
:140C1C00300108950E94690D219780916300877F8093650034
:140C300008E097DE402F083031F48FED8883222700E20BDDED
:140C440005C08FED8883242F00E405DD00E187DE0093090154
:140C580001E183DE00930A0120910901DCDC00E40E94FF09A6
:140C6C000FEE0E94F0090EE80E94F00900270E94FF09809169
:140C8000630082608093650020902F01222089F02224209210
:140C94002F01209226012EBC20903401222021F403E00E9498
:140CA800EE0B03C022242092340121960E946C0D0895219728
:140CBC00809163008860809365008FED8883222700E2C5DCFD
:140CD00000E147DE0093090101E143DE00930A01802F806835
:140CE40080930A0120910901082F97DC01E40E94FF0900E208
:140CF8000E94F00900270E94FF092196089521972224209278
:140D0C00050180916300877F809365008FED8883222700E229
:140D20009CDC00E11EDE0093090101E11ADE00930A01802FA6
:140D34008E6080930A0120910901082F6EDC219608950E946D
:140D4800650D58010E94910A00270E94FF09F501449161E0B2
:140D5C000DC0693019F400E40E94FF09E62FFF27EA0DFB1D38
:140D700004910E94F0096395641788F34B3019F000E20E9449
:140D8400F0090E945B0D08950E94610DC22E78014A850C2D3A
:140D98000E94FF09AA2404C000E20E94F009A394A416D0F3DA
:140DAC000C2D0E94FF09F701A49061E008C0E62FFF27EE0DE5
:140DC000FF1D04910E94F00963956A15B0F300E20E94F0093C
:140DD4000E945E0D08950E94690D40912E0155274230E0E09B
:140DE8005E0709F433C04330E0E05E0709F447C04430E0E0D2
:140DFC005E0709F454C04530E0E05E0709F45FC04630E0E081
:140E10005E0709F45EC04730E0E05E0709F45DC04830E0E060
:140E24005E0709F45CC04930E0E05E0709F45BC04A30E0E04C
:140E38005E0709F45DC04B30E0E05E0709F46EC04C30E0E020
:140E4C005E0709F47FC096C020900C01222059F481E08093DB
:140E60000C01222420920F01209210010E94910A87C099DBAE
:140E74002227332700E849DBB2DB222420920C017DC020903C
:140E88000401222039F481E08093040180B38F7E82BB72C0BA
:140E9C0022242092040180B3806182BB6BC0409163004170E4
:140EB00031F48091630081608093650061C0809163008E7F9A
:140EC400809365005BC029E00EEFBDD057C02AE00DEFB9D04E
:140ED80053C028E00FEDB5D04FC02BE00FEEB1D04BC081E066
:140EEC0080932C012CE00FE7AAD044C020900401222031F416
:140F000081E0809304010E94910A3AC020910B0107E019DD93
:140F140020900B01209235012224209204012EC02090060183
:140F2800222031F481E0809306010E94910A24C0809106019A
:140F3C00813011F4C8D01EC0809106018330D1F416D118C026
:140F500020900401222031F481E0809304010E94910A0EC0ED
:140F640080910B01823019F483E080930B0120910B0100E27C
:140F7800E6DC2224209204010E946C0D08950E94690D0E9434
:140F8C00910A40912E0155274230E0E05E0749F14330E0E036
:140FA0005E0749F14430E0E05E0749F14530E0E05E0749F1F7
:140FB4004630E0E05E0749F14730E0E05E0749F14830E0E046
:140FC8005E0749F14930E0E05E0749F14A30E0E05E0749F1C5
:140FDC004B30E0E05E0749F14C30E0E05E0749F12BC009EC6C
:140FF00010E0A9DE27C00CEB10E0A5DE23C003EC10E0A1DEE4
:141004001FC006EA10E09DDE1BC00BEA10E099DE17C009E99E
:1410180010E095DE13C001EB10E091DE0FC007EB10E08DDE27
:14102C000BC004E910E089DE07C00FE910E085DE03C000EEDE
:1410400010E081DE0E946C0D08950E94670D422F602F2197C7
:1410540020900401222031F481E0809304010E94910A18C0DE
:1410680080910B018F7080930B01883029F46883222700E24E
:14107C00EEDA05C0688320910B0100E4E8DA20910B01042F95
:141090005ADC22242092040121960E94580D089580B38061AA
:1410A40082BB002711C080B38F7E82BB222701C023952B3069
:1410B800E8F380B3806182BB222701C023952330E8F3039570
:1410CC00083068F308950E94670D0E94910A80910B018F7071
:1410E000282E20920801482F80910B0182958F7080930B0122
:1410F400282E82E0829D802D805F282E20920701682F082FA7
:141108002CDC00930901862F8F5F682F082F25DC00930A011E
:14111C0082E080930601423029F4809107018F5F8093070192
:141130000091070116DC402F06D000270E94FF090E94580D03
:1411440008950E94650DA02E00270E94FF0940E866270CC0C6
:141158002A2C242221F001E00E94AB0A03C000270E94AB0A5D
:14116C0046956395683090F30E945B0D08950E94690D209111
:14118000090100910A014BDA80910801813019F440910901DD
:1411940002C040910A01242F00910701D2DB22242092060111
:1411A8000E946C0D08950E94670D20901901222011F40E94B2
:1411BC00910A809119018F5F80931901009103010E94AB0A52
:1411D000409103016091190177276130E0E07E0701F1623033
:1411E400E0E07E0729F16330E0E07E0749F16430E0E07E07AD
:1411F80069F16530E0E07E0789F16630E0E07E0709F434C069
:14120C006730E0E07E0709F437C06830E0E07E0709F43AC02A
:1412200040C0442309F43DC080911A01806880931A0137C020
:141234004423A9F180911A01806480931A012FC0442369F1B7
:1412480080911A01806280931A0127C0442329F180911A01C2
:14125C00806180931A011FC04423E9F080911A018860809329
:141270001A0117C04423A9F080911A01846080931A010FC06B
:14128400442369F080911A01826080931A0107C0442329F013
:1412980080911A01816080931A01809119018830A9F4809176
:1412AC000801813029F420901A012092090104C020901A0141
:1412C00020920A0183E08093060122242092190120921A0101
:1412D4000E94580D08950E94800D0E941E0B0E94970D189575
:1412E8008A938FB78A9381E08093270189918FBF89911895A7
:1412FC008A938FB78A9381E080932D0189918FBF899118958D
:141310008A938FB78A9382E080932D0189918FBF8991189577
:141324008A938FB78A9383E080932D0189918FBF8991189562
:141338008A938FB78A9384E080932D0189918FBF899118954D
:14134C008A938FB78A9381E080932B0189918FBF899118953E
:141360000E94800D0E94930C0E94970D18950E94800D0E9445
:14137400730C0E94970D1895902F9295906F9BBB90B1906483
:141388009093620000000000000090B19F7B909362000000EC
:14139C0000000000006F0BBB90B1906490936200000000004E
:1413B000000090B19F7B9093620000000000000008959AB35F
:1413C4009F609ABB90B19F7B909362000000000000009798B2
:1413D8009698D0DF13D008959AB39F609ABB90B19F7B909385
:1413EC006200000000000000979A9698C1DF04D008950068B3
:14140000E0DF08959AB3907F9ABB90B19F7B909362000000EB
:14141400000000009798969A0000000090B1906490936200AB
:1414280000000000000089B390B19F7B909362000000000094
:14143C00000090B190649093620000000000000009B290B1E6
:141450009F7B9093620000000000000083FDE0CF9AB39F606E
:141464009ABB08950F939AB39F609ABB90B19F7B909362005F
:141478000000000000009798969883E08BBB90B19064909302
:14148C00620000000000000090B19F7B90936200000000000A
:1414A00000003BD090B190649093620000000000000090B132
:1414B4009F7B909362000000000000002CD090B19064909331
:1414C800620000000000000090B19F7B9093620000000000CE
:1414DC0000001DD082E08BBB90B190649093620000000000AD
:1414F000000090B19F7B909362000000000000000CD008E242
:141504005EDF08E05CDF01E05ADF06E058DF0CE056DF0F917B
:1415180008958FEF8A95F1F7089501E04EDF08950EE04BDF3D
:14152C0008950CE048DF089564DF022F02950F70006350DF42
:141540002F702063022F4CDF089559DF022F0F70006346DF0C
:1415540008950F70006342DF0895A02F2FD007D081B1807F70
:14156800803FE1F780EF83B9089590E08EEF982E0ED0089463
:14157C00991C81B1807F803F31F49395943009F0F5CF0FEFEA
:1415900008951BD0089590FE02C0189A01C0189891FE02C05E
:1415A400199A01C0199892FE02C01A9A01C01A9893FE02C042
:1415B8001B9A01C01B980895EFEFFBE83197F1F70895F5E175
:1415CC00E0EE84E08A9F090E8827181EE00DF11D0491089587
:1415E0000102030A0405060B0708090C0E000F0D0E94690D67
:1415F4000E94270D00EF0E941B0D00EF0E941B0D08EF0E9402
:141608001B0D00EF0E941B0D0DEF0E941B0D00EF0E941B0D6E
:14161C000E94270D402F0E946C0D08950E94690D402F406F87
:14163000042F0E94200D0E946C0D08950E94650DF8940E94AA
:14164400270D602F402F627009F437C0A0901F01BB24C501A5
:141658008130E0E09E0729F08230E0E09E0791F026C082E06F
:14166C0080931F0120902201222021F000911C01D5DF70C07F
:14168000609135016F70062FCFDF6AC0222420921F0120907B
:141694002201222021F400911E01C4DF5FC060913501062FFA
:1416A800F1D0602FBDDF22242092220155C0222420921F01FA
:1416BC0051C0447009F44EC00E942D0D402F4F70809120010E
:1416D0008F5F80932001682F77276130E0E07E0749F062300E
:1416E400E0E07E0781F06330E0E07E0719F135C0A2D0842F40
:1416F8008C7021F081E0809321012EC040931B012BC02090C3
:14170C002101222029F0042FC0D000931B0122C081E0809384
:14172000330180911B018F70829580931B01282E242A2092B9
:141734001B0114C040931D0120902101222021F0042FA7D0F1
:14174800009333012090350130901B01321409F4A3D079D005
:14175C0001C077D078940E945B0D08950E94690D20902101D4
:14177000222021F480911D018430D9F420902801222061F0F2
:1417840020902901222019F022242092290103E023D00E9492
:14179800C8050BC04091630044FF04C0222420922F0103C07F
:1417AC0081E080932F010E946C0D08950E94690D2FD081E055
:1417C00080931F01409135014A3018F408EF2CDF02C009EF99
:1417D40029DF0E946C0D08950E94690D402F222420922F0192
:1417E80040931E01E5DF0E946C0D08950E94690D402F209048
:1417FC001F01222051F481E080931F010CEF0EDF81E0809342
:14181000220140931C010E946C0D089500270AC02227332765
:1418240002C02F5F3F4F2F3FEFEF3E07D0F303950430A0F31F
:14183800089588EB8093890082E68093880083E080938A00ED
:14184C00089580917C00846080937C00222420922001209220
:141860001B0120922101209289002092880020928A0087EF5D
:1418740089BF08950E94690D40917C00447009F4E4DF0E9400
:141888006C0D089589E0801708F40650089589E0801708F44B
:14189C000A5F08950E94690D61DF20902101222009F018C0F5
:1418B00020901F012220A1F44091630044FF04C08DE08093C2
:1418C4001E010BC080911D01853021F48FE080931E0103C0C9
:1418D80089E080931E016CDF0E946C0D089580912A018F5F34
:1418EC0080932A01082F11270230E0E01E0729F00330E0E018
:141900001E0731F00CC02090320120929C000AC084E080934F
:141914009C0081E08093240103C0222420922A0108950E9465
:14192800670D40919C00809125018F5F80932501682F772737
:14193C006130E0E07E0749F06230E0E07E07A9F06330E0E0C5
:141950007E0739F010C0463971F02224209225010AC02224F7
:1419640020922501642F607F603D19F44F70042F03D00E9414
:14197800580D08950E94690D402F55274230E0E05E0779F056
:14198C004330E0E05E0791F04430E0E05E0709F43CC0463026
:1419A000E0E05E0709F43DC043C022242092280186B38063D4
:1419B40088BB3CC081E08093280186B38F7C88BB20902F01DC
:1419C800222029F00E94C80503E004DF2DC020902401222077
:1419DC0031F022242092240103E0FADE23C020902301222005
:1419F00021F02224209223011BC04091630044FD17C02090DF
:141A04002F01222099F481E08093290180932F010DC001E040
:141A1800EDDE81E08093230107C02224209228012092240198
:141A2C0002E0D6DE0E946C0D08958FEF8ABB0BBB14D008954E
:141A40008FEF8ABB006F0F7E0BBB0DD0089580EF8ABB8FEF61
:141A54008BBB1CD0089580EF8ABB8FEE8BBB16D0089580B184
:141A6800877F80936200000080B18B7F80936200000080B10E
:141A7C00846080936200000080B188608093620000000895D2
:141A900080B1877F80936200DD9800000000000009B30F70E6
:141AA400DD9A80B18860809362000895E2E00C946D0DE4E0EC
:141AB8000C946D0DEE270C946D0DFA92EA92DA92CA92BA92B5
:141ACC00AA927A936A935A934A930895E1E049915991E0FDF7
:141AE000089569917991E1FD0895A990B990E2FD0895C9907F
:141AF400D990E3FD0895E990F9900895FA93EA93BA93AA93C5
:141B08009A938A933A932A931A930A939A928A927A926A925B
:141B1C005A924A923A922A921A920A920FB60A920895099086
:141B30000FBE09901990299039904990599069907990899033
:141B44009990099119912991399189919991A991B991E9915A
:041B5800F991089562
:00000001FF
